{
  "_format": "hh-sol-artifact-1",
  "contractName": "NFTXLPStaking",
  "sourceName": "contracts/solidity/NFTXLPStaking.sol",
  "abi": [
    {
      "anonymous": false,
      "inputs": [
        {
          "indexed": false,
          "internalType": "uint256",
          "name": "vaultId",
          "type": "uint256"
        },
        {
          "indexed": false,
          "internalType": "uint256",
          "name": "amount",
          "type": "uint256"
        }
      ],
      "name": "FeesReceived",
      "type": "event"
    },
    {
      "anonymous": false,
      "inputs": [
        {
          "indexed": true,
          "internalType": "address",
          "name": "previousOwner",
          "type": "address"
        },
        {
          "indexed": true,
          "internalType": "address",
          "name": "newOwner",
          "type": "address"
        }
      ],
      "name": "OwnershipTransferred",
      "type": "event"
    },
    {
      "anonymous": false,
      "inputs": [
        {
          "indexed": false,
          "internalType": "uint256",
          "name": "vaultId",
          "type": "uint256"
        },
        {
          "indexed": false,
          "internalType": "address",
          "name": "pool",
          "type": "address"
        }
      ],
      "name": "PoolCreated",
      "type": "event"
    },
    {
      "anonymous": false,
      "inputs": [
        {
          "indexed": false,
          "internalType": "uint256",
          "name": "vaultId",
          "type": "uint256"
        },
        {
          "indexed": false,
          "internalType": "address",
          "name": "pool",
          "type": "address"
        }
      ],
      "name": "PoolUpdated",
      "type": "event"
    },
    {
      "inputs": [
        {
          "internalType": "address",
          "name": "_stakingTokenProvider",
          "type": "address"
        }
      ],
      "name": "__NFTXLPStaking__init",
      "outputs": [],
      "stateMutability": "nonpayable",
      "type": "function"
    },
    {
      "inputs": [
        {
          "internalType": "uint256",
          "name": "vaultId",
          "type": "uint256"
        }
      ],
      "name": "addPoolForVault",
      "outputs": [],
      "stateMutability": "nonpayable",
      "type": "function"
    },
    {
      "inputs": [
        {
          "internalType": "uint256",
          "name": "vaultId",
          "type": "uint256"
        },
        {
          "internalType": "address",
          "name": "addr",
          "type": "address"
        }
      ],
      "name": "balanceOf",
      "outputs": [
        {
          "internalType": "uint256",
          "name": "",
          "type": "uint256"
        }
      ],
      "stateMutability": "view",
      "type": "function"
    },
    {
      "inputs": [
        {
          "internalType": "uint256",
          "name": "vaultId",
          "type": "uint256"
        }
      ],
      "name": "claimRewards",
      "outputs": [],
      "stateMutability": "nonpayable",
      "type": "function"
    },
    {
      "inputs": [
        {
          "internalType": "uint256",
          "name": "vaultId",
          "type": "uint256"
        },
        {
          "internalType": "uint256",
          "name": "amount",
          "type": "uint256"
        }
      ],
      "name": "deposit",
      "outputs": [],
      "stateMutability": "nonpayable",
      "type": "function"
    },
    {
      "inputs": [
        {
          "internalType": "address",
          "name": "_stakingToken",
          "type": "address"
        },
        {
          "internalType": "address",
          "name": "_rewardToken",
          "type": "address"
        }
      ],
      "name": "emergencyExit",
      "outputs": [],
      "stateMutability": "nonpayable",
      "type": "function"
    },
    {
      "inputs": [
        {
          "internalType": "address",
          "name": "_stakingToken",
          "type": "address"
        },
        {
          "internalType": "address",
          "name": "_rewardToken",
          "type": "address"
        }
      ],
      "name": "emergencyExitAndClaim",
      "outputs": [],
      "stateMutability": "nonpayable",
      "type": "function"
    },
    {
      "inputs": [
        {
          "internalType": "uint256",
          "name": "vaultId",
          "type": "uint256"
        }
      ],
      "name": "exit",
      "outputs": [],
      "stateMutability": "nonpayable",
      "type": "function"
    },
    {
      "inputs": [],
      "name": "feeDistributor",
      "outputs": [
        {
          "internalType": "contract INFTXFeeDistributor",
          "name": "",
          "type": "address"
        }
      ],
      "stateMutability": "view",
      "type": "function"
    },
    {
      "inputs": [],
      "name": "nftxVaultFactory",
      "outputs": [
        {
          "internalType": "contract INFTXVaultFactory",
          "name": "",
          "type": "address"
        }
      ],
      "stateMutability": "view",
      "type": "function"
    },
    {
      "inputs": [],
      "name": "owner",
      "outputs": [
        {
          "internalType": "address",
          "name": "",
          "type": "address"
        }
      ],
      "stateMutability": "view",
      "type": "function"
    },
    {
      "inputs": [
        {
          "internalType": "uint256",
          "name": "vaultId",
          "type": "uint256"
        },
        {
          "internalType": "uint256",
          "name": "amount",
          "type": "uint256"
        }
      ],
      "name": "receiveRewards",
      "outputs": [
        {
          "internalType": "bool",
          "name": "",
          "type": "bool"
        }
      ],
      "stateMutability": "nonpayable",
      "type": "function"
    },
    {
      "inputs": [],
      "name": "renounceOwnership",
      "outputs": [],
      "stateMutability": "nonpayable",
      "type": "function"
    },
    {
      "inputs": [],
      "name": "rewardDistTokenImpl",
      "outputs": [
        {
          "internalType": "contract RewardDistributionTokenUpgradeable",
          "name": "",
          "type": "address"
        }
      ],
      "stateMutability": "view",
      "type": "function"
    },
    {
      "inputs": [
        {
          "internalType": "uint256",
          "name": "vaultId",
          "type": "uint256"
        }
      ],
      "name": "rewardDistributionToken",
      "outputs": [
        {
          "internalType": "contract RewardDistributionTokenUpgradeable",
          "name": "",
          "type": "address"
        }
      ],
      "stateMutability": "view",
      "type": "function"
    },
    {
      "inputs": [
        {
          "internalType": "uint256",
          "name": "vaultId",
          "type": "uint256"
        }
      ],
      "name": "safeRewardDistributionToken",
      "outputs": [
        {
          "internalType": "address",
          "name": "",
          "type": "address"
        }
      ],
      "stateMutability": "view",
      "type": "function"
    },
    {
      "inputs": [
        {
          "internalType": "address",
          "name": "newDistributor",
          "type": "address"
        }
      ],
      "name": "setFeeDistributor",
      "outputs": [],
      "stateMutability": "nonpayable",
      "type": "function"
    },
    {
      "inputs": [
        {
          "internalType": "address",
          "name": "newFactory",
          "type": "address"
        }
      ],
      "name": "setNFTXVaultFactory",
      "outputs": [],
      "stateMutability": "nonpayable",
      "type": "function"
    },
    {
      "inputs": [
        {
          "internalType": "address",
          "name": "newProvider",
          "type": "address"
        }
      ],
      "name": "setStakingTokenProvider",
      "outputs": [],
      "stateMutability": "nonpayable",
      "type": "function"
    },
    {
      "inputs": [],
      "name": "stakingTokenProvider",
      "outputs": [
        {
          "internalType": "contract StakingTokenProvider",
          "name": "",
          "type": "address"
        }
      ],
      "stateMutability": "view",
      "type": "function"
    },
    {
      "inputs": [
        {
          "internalType": "address",
          "name": "newOwner",
          "type": "address"
        }
      ],
      "name": "transferOwnership",
      "outputs": [],
      "stateMutability": "nonpayable",
      "type": "function"
    },
    {
      "inputs": [
        {
          "internalType": "uint256",
          "name": "vaultId",
          "type": "uint256"
        }
      ],
      "name": "updatePoolForVault",
      "outputs": [],
      "stateMutability": "nonpayable",
      "type": "function"
    },
    {
      "inputs": [
        {
          "internalType": "uint256[]",
          "name": "vaultIds",
          "type": "uint256[]"
        }
      ],
      "name": "updatePoolForVaults",
      "outputs": [],
      "stateMutability": "nonpayable",
      "type": "function"
    },
    {
      "inputs": [
        {
          "internalType": "uint256",
          "name": "",
          "type": "uint256"
        }
      ],
      "name": "vaultStakingInfo",
      "outputs": [
        {
          "internalType": "address",
          "name": "stakingToken",
          "type": "address"
        },
        {
          "internalType": "address",
          "name": "rewardToken",
          "type": "address"
        }
      ],
      "stateMutability": "view",
      "type": "function"
    },
    {
      "inputs": [
        {
          "internalType": "uint256",
          "name": "vaultId",
          "type": "uint256"
        },
        {
          "internalType": "uint256",
          "name": "amount",
          "type": "uint256"
        }
      ],
      "name": "withdraw",
      "outputs": [],
      "stateMutability": "nonpayable",
      "type": "function"
    }
  ],
  "bytecode": "0x608060405234801561001057600080fd5b506141e1806100206000396000f3fe608060405234801561001057600080fd5b50600436106101a35760003560e01c80637ec732ab116100ee5780639d8ab6ae11610097578063ccfc2e8d11610071578063ccfc2e8d14610398578063e2bbb158146103ab578063f2fde38b146103be578063f36d52da146103d157600080fd5b80639d8ab6ae1461035f578063a77abced14610372578063a8722fc61461038557600080fd5b806387a6753f116100c857806387a6753f146103285780638da5cb5b1461033b57806392a05be61461034c57600080fd5b80637ec732ab146102ef5780637f8661a11461030257806386c920fc1461031557600080fd5b80633801daf1116101505780635cec16c01161012a5780635cec16c0146102c1578063715018a6146102d45780637a77a5f7146102dc57600080fd5b80633801daf114610288578063441a3e701461029b578063482d0fd2146102ae57600080fd5b80633504f437116101815780633504f437146102005780633580c2f2146102545780633656eec21461026757600080fd5b806306622028146101a85780630962ef79146101d85780630d43e8ad146101ed575b600080fd5b6101bb6101b6366004611f34565b6103f4565b6040516001600160a01b0390911681526020015b60405180910390f35b6101eb6101e6366004611f34565b61048d565b005b6066546101bb906001600160a01b031681565b61023461020e366004611f34565b606960205260009081526040902080546001909101546001600160a01b03918216911682565b604080516001600160a01b039384168152929091166020830152016101cf565b6101eb610262366004611dc3565b61051f565b61027a610275366004611f64565b6105de565b6040519081526020016101cf565b6065546101bb906001600160a01b031681565b6101eb6102a9366004611f88565b6106a6565b6101eb6102bc366004611f34565b61073a565b6101eb6102cf366004611dc3565b61091b565b6101eb610944565b6101eb6102ea366004611dfb565b6109e8565b6101eb6102fd366004611d8b565b610a34565b6101eb610310366004611f34565b610ac3565b6068546101bb906001600160a01b031681565b6101eb610336366004611f34565b610b5f565b6033546001600160a01b03166101bb565b6067546101bb906001600160a01b031681565b6101eb61036d366004611d8b565b610def565b6101eb610380366004611d8b565b610f78565b6101bb610393366004611f34565b611007565b6101eb6103a6366004611d8b565b61104c565b6101eb6103b9366004611f88565b6110db565b6101eb6103cc366004611d8b565b611283565b6103e46103df366004611f88565b6113b5565b60405190151581526020016101cf565b6000818152606960209081526040808320815180830190925280546001600160a01b0390811680845260019092015416928201929092529061047d5760405162461bcd60e51b815260206004820152601b60248201527f4c505374616b696e673a204e6f6e6578697374656e7420706f6f6c000000000060448201526064015b60405180910390fd5b61048681611658565b9392505050565b600081815260696020908152604091829020825180840190935280546001600160a01b0390811680855260019092015416918301919091526105115760405162461bcd60e51b815260206004820152601b60248201527f4c505374616b696e673a204e6f6e6578697374656e7420706f6f6c00000000006044820152606401610474565b61051b81336116c3565b5050565b604080518082019091526001600160a01b0380841682528216602082015261054781336116c3565b600061055282611658565b6040516370a0823160e01b81523360048201529091506105d89083906001600160a01b038416906370a082319060240160206040518083038186803b15801561059a57600080fd5b505afa1580156105ae573d6000803e3d6000fd5b505050506040513d601f19601f820116820180604052508101906105d29190611f4c565b33611746565b50505050565b6000828152606960209081526040808320815180830190925280546001600160a01b03908116835260019091015416918101919091528161061e82611658565b6040516370a0823160e01b81526001600160a01b038681166004830152919250908216906370a082319060240160206040518083038186803b15801561066357600080fd5b505afa158015610677573d6000803e3d6000fd5b505050506040513d601f19601f8201168201806040525081019061069b9190611f4c565b925050505b92915050565b600082815260696020908152604091829020825180840190935280546001600160a01b03908116808552600190920154169183019190915261072a5760405162461bcd60e51b815260206004820152601b60248201527f4c505374616b696e673a204e6f6e6578697374656e7420706f6f6c00000000006044820152606401610474565b610735818333611746565b505050565b600081815260696020908152604091829020825180840190935280546001600160a01b0390811680855260019092015416918301919091526107be5760405162461bcd60e51b815260206004820152601d60248201527f4c505374616b696e673a20506f6f6c20646f65736e27742065786973740000006044820152606401610474565b60685460208201516040516387c13f4d60e01b81526001600160a01b03918216600482015260009291909116906387c13f4d9060240160206040518083038186803b15801561080c57600080fd5b505afa158015610820573d6000803e3d6000fd5b505050506040513d601f19601f820116820180604052508101906108449190611da7565b905081600001516001600160a01b0316816001600160a01b0316141561086957505050565b6040805180820182526001600160a01b038084168252602085810151821681840190815260008881526069909252938120835181549084166001600160a01b0319918216178255945160019091018054919093169416939093179055906108cf8261186a565b604080518781526001600160a01b03831660208201529192507fd2bb61ed4a0a485d895c65f25fb6c9185c98180ae407831365bc59f65419f9fe91015b60405180910390a15050505050565b604080518082019091526001600160a01b03808416825282166020820152600061055282611658565b6033546001600160a01b0316331461099e5760405162461bcd60e51b815260206004820181905260248201527f4f776e61626c653a2063616c6c6572206973206e6f7420746865206f776e65726044820152606401610474565b6033546040516000916001600160a01b0316907f8be0079c531659141344cd1fd0a4f28419497f9722a3daafe3b4186f6b6457e0908390a3603380546001600160a01b0319169055565b60005b8181101561073557610a22838383818110610a1657634e487b7160e01b600052603260045260246000fd5b9050602002013561073a565b80610a2c8161203f565b9150506109eb565b6033546001600160a01b03163314610a8e5760405162461bcd60e51b815260206004820181905260248201527f4f776e61626c653a2063616c6c6572206973206e6f7420746865206f776e65726044820152606401610474565b6001600160a01b038116610aa157600080fd5b606880546001600160a01b0319166001600160a01b0392909216919091179055565b600081815260696020908152604091829020825180840190935280546001600160a01b039081168085526001909201541691830191909152610b475760405162461bcd60e51b815260206004820152601b60248201527f4c505374616b696e673a204e6f6e6578697374656e7420706f6f6c00000000006044820152606401610474565b610b5181336116c3565b61051b816105d284336105de565b6033546001600160a01b0316331480610b8257506066546001600160a01b031633145b610bce5760405162461bcd60e51b815260206004820152601960248201527f4c505374616b696e673a204e6f7420617574686f72697a6564000000000000006044820152606401610474565b6000818152606960205260409020546001600160a01b031615610c335760405162461bcd60e51b815260206004820152601e60248201527f4c505374616b696e673a20506f6f6c20616c72656164792065786973747300006044820152606401610474565b6065546040517f81a36fb6000000000000000000000000000000000000000000000000000000008152600481018390526000916001600160a01b0316906381a36fb69060240160206040518083038186803b158015610c9157600080fd5b505afa158015610ca5573d6000803e3d6000fd5b505050506040513d601f19601f82011682018060405250810190610cc99190611da7565b6068546040516387c13f4d60e01b81526001600160a01b038084166004830152929350600092909116906387c13f4d9060240160206040518083038186803b158015610d1457600080fd5b505afa158015610d28573d6000803e3d6000fd5b505050506040513d601f19601f82011682018060405250810190610d4c9190611da7565b6040805180820182526001600160a01b038084168252858116602080840191825260008981526069909152938420835181549084166001600160a01b0319918216178255915160019091018054919093169116179055919250610dae8261186a565b604080518781526001600160a01b03831660208201529192507f65fc0eb45954044fb55e1b01344d5d72fbfdf88e732d955f73bb7fb2bcc131e9910161090c565b600054610100900460ff1680610e08575060005460ff16155b610e6b5760405162461bcd60e51b815260206004820152602e60248201527f496e697469616c697a61626c653a20636f6e747261637420697320616c72656160448201526d191e481a5b9a5d1a585b1a5e995960921b6064820152608401610474565b600054610100900460ff16158015610e8d576000805461ffff19166101011790555b610e956119e2565b604051610ea190611d7e565b604051809103906000f080158015610ebd573d6000803e3d6000fd5b50606780546001600160a01b0319166001600160a01b039290921691821790556040516307f96bf560e01b815260006004820181905260606024830152606482018190526080604483015260848201526307f96bf59060a401600060405180830381600087803b158015610f3057600080fd5b505af1158015610f44573d6000803e3d6000fd5b5050606880546001600160a01b0319166001600160a01b0386161790555050801561051b576000805461ff00191690555050565b6033546001600160a01b03163314610fd25760405162461bcd60e51b815260206004820181905260248201527f4f776e61626c653a2063616c6c6572206973206e6f7420746865206f776e65726044820152606401610474565b6001600160a01b038116610fe557600080fd5b606580546001600160a01b0319166001600160a01b0392909216919091179055565b6000818152606960209081526040808320815180830190925280546001600160a01b0390811680845260019092015416928201929092529061047d5750600092915050565b6033546001600160a01b031633146110a65760405162461bcd60e51b815260206004820181905260248201527f4f776e61626c653a2063616c6c6572206973206e6f7420746865206f776e65726044820152606401610474565b6001600160a01b0381166110b957600080fd5b606680546001600160a01b0319166001600160a01b0392909216919091179055565b6110e48261073a565b600082815260696020908152604091829020825180840190935280546001600160a01b0390811680855260019092015416918301919091526111685760405162461bcd60e51b815260206004820152601b60248201527f4c505374616b696e673a204e6f6e6578697374656e7420706f6f6c00000000006044820152606401610474565b80516040516323b872dd60e01b8152336004820152306024820152604481018490526001600160a01b03909116906323b872dd90606401602060405180830381600087803b1580156111b957600080fd5b505af11580156111cd573d6000803e3d6000fd5b505050506040513d601f19601f820116820180604052508101906111f19190611e6b565b6111fa57600080fd5b61120381611658565b6040517f40c10f19000000000000000000000000000000000000000000000000000000008152336004820152602481018490526001600160a01b0391909116906340c10f1990604401600060405180830381600087803b15801561126657600080fd5b505af115801561127a573d6000803e3d6000fd5b50505050505050565b6033546001600160a01b031633146112dd5760405162461bcd60e51b815260206004820181905260248201527f4f776e61626c653a2063616c6c6572206973206e6f7420746865206f776e65726044820152606401610474565b6001600160a01b0381166113595760405162461bcd60e51b815260206004820152602660248201527f4f776e61626c653a206e6577206f776e657220697320746865207a65726f206160448201527f64647265737300000000000000000000000000000000000000000000000000006064820152608401610474565b6033546040516001600160a01b038084169216907f8be0079c531659141344cd1fd0a4f28419497f9722a3daafe3b4186f6b6457e090600090a3603380546001600160a01b0319166001600160a01b0392909216919091179055565b60006113c96033546001600160a01b031690565b6001600160a01b0316336001600160a01b031614806113f257506066546001600160a01b031633145b61143e5760405162461bcd60e51b815260206004820152601960248201527f4c505374616b696e673a204e6f7420617574686f72697a6564000000000000006044820152606401610474565b600083815260696020908152604091829020825180840190935280546001600160a01b0390811680855260019092015416918301919091526114845760009150506106a0565b600061148f82611658565b9050806001600160a01b03166318160ddd6040518163ffffffff1660e01b815260040160206040518083038186803b1580156114ca57600080fd5b505afa1580156114de573d6000803e3d6000fd5b505050506040513d601f19601f820116820180604052508101906115029190611f4c565b611511576000925050506106a0565b60208201516040516323b872dd60e01b81523360048201526001600160a01b03838116602483015260448201879052909116906323b872dd90606401602060405180830381600087803b15801561156757600080fd5b505af115801561157b573d6000803e3d6000fd5b505050506040513d601f19601f8201168201806040525081019061159f9190611e6b565b506040517f59974e38000000000000000000000000000000000000000000000000000000008152600481018590526001600160a01b038216906359974e3890602401600060405180830381600087803b1580156115fb57600080fd5b505af115801561160f573d6000803e3d6000fd5b505060408051888152602081018890527f0299314386021feac38b734d748626da8e75d6abb4e6a897c0f9c8f23ff42715935001905060405180910390a1506001949350505050565b8051602080830151604080516bffffffffffffffffffffffff19606095861b8116828601529290941b9091166034840152805180840360280181526048909301905281519101206067546000919082906116bb906001600160a01b031683611aa5565b949350505050565b6116cc82611658565b6040517fb86e321c0000000000000000000000000000000000000000000000000000000081526001600160a01b038381166004830152919091169063b86e321c90602401600060405180830381600087803b15801561172a57600080fd5b505af115801561173e573d6000803e3d6000fd5b505050505050565b61174f83611658565b6040517f79cc67900000000000000000000000000000000000000000000000000000000081526001600160a01b0383811660048301526024820185905291909116906379cc679090604401600060405180830381600087803b1580156117b457600080fd5b505af11580156117c8573d6000803e3d6000fd5b505084516040517fa9059cbb0000000000000000000000000000000000000000000000000000000081526001600160a01b03858116600483015260248201879052909116925063a9059cbb9150604401602060405180830381600087803b15801561183257600080fd5b505af1158015611846573d6000803e3d6000fd5b505050506040513d601f19601f820116820180604052508101906105d89190611e6b565b8051602080830151604080516bffffffffffffffffffffffff19606095861b8116828601529290941b9091166034840152805180840360280181526048909301905281519101206067546000919082906118cd906001600160a01b031683611b21565b60685460208601516040517f96c596710000000000000000000000000000000000000000000000000000000081526001600160a01b0391821660048201529293506000929116906396c596719060240160006040518083038186803b15801561193557600080fd5b505afa158015611949573d6000803e3d6000fd5b505050506040513d6000823e601f3d908101601f191682016040526119719190810190611e8b565b60208601516040516307f96bf560e01b81529192506001600160a01b038416916307f96bf5916119a79185908190600401611fd5565b600060405180830381600087803b1580156119c157600080fd5b505af11580156119d5573d6000803e3d6000fd5b5093979650505050505050565b600054610100900460ff16806119fb575060005460ff16155b611a5e5760405162461bcd60e51b815260206004820152602e60248201527f496e697469616c697a61626c653a20636f6e747261637420697320616c72656160448201526d191e481a5b9a5d1a585b1a5e995960921b6064820152608401610474565b600054610100900460ff16158015611a80576000805461ffff19166101011790555b611a88611bd8565b611a90611c89565b8015611aa2576000805461ff00191690555b50565b60006104868383306040517f3d602d80600a3d3981f3363d3d373d3d3d363d730000000000000000000000008152606093841b60148201527f5af43d82803e903d91602b57fd5bf3ff000000000000000000000000000000006028820152921b6038830152604c8201526037808220606c830152605591012090565b60006040517f3d602d80600a3d3981f3363d3d373d3d3d363d7300000000000000000000000081528360601b60148201527f5af43d82803e903d91602b57fd5bf300000000000000000000000000000000006028820152826037826000f59150506001600160a01b0381166106a05760405162461bcd60e51b815260206004820152601760248201527f455243313136373a2063726561746532206661696c65640000000000000000006044820152606401610474565b600054610100900460ff1680611bf1575060005460ff16155b611c545760405162461bcd60e51b815260206004820152602e60248201527f496e697469616c697a61626c653a20636f6e747261637420697320616c72656160448201526d191e481a5b9a5d1a585b1a5e995960921b6064820152608401610474565b600054610100900460ff16158015611a90576000805461ffff19166101011790558015611aa2576000805461ff001916905550565b600054610100900460ff1680611ca2575060005460ff16155b611d055760405162461bcd60e51b815260206004820152602e60248201527f496e697469616c697a61626c653a20636f6e747261637420697320616c72656160448201526d191e481a5b9a5d1a585b1a5e995960921b6064820152608401610474565b600054610100900460ff16158015611d27576000805461ffff19166101011790555b603380546001600160a01b0319163390811790915560405181906000907f8be0079c531659141344cd1fd0a4f28419497f9722a3daafe3b4186f6b6457e0908290a3508015611aa2576000805461ff001916905550565b61211a8061209283390190565b600060208284031215611d9c578081fd5b81356104868161207c565b600060208284031215611db8578081fd5b81516104868161207c565b60008060408385031215611dd5578081fd5b8235611de08161207c565b91506020830135611df08161207c565b809150509250929050565b60008060208385031215611e0d578182fd5b823567ffffffffffffffff80821115611e24578384fd5b818501915085601f830112611e37578384fd5b813581811115611e45578485fd5b8660208260051b8501011115611e59578485fd5b60209290920196919550909350505050565b600060208284031215611e7c578081fd5b81518015158114610486578182fd5b600060208284031215611e9c578081fd5b815167ffffffffffffffff80821115611eb3578283fd5b818401915084601f830112611ec6578283fd5b815181811115611ed857611ed8612066565b604051601f8201601f19908116603f01168101908382118183101715611f0057611f00612066565b81604052828152876020848701011115611f18578586fd5b611f29836020830160208801612013565b979650505050505050565b600060208284031215611f45578081fd5b5035919050565b600060208284031215611f5d578081fd5b5051919050565b60008060408385031215611f76578182fd5b823591506020830135611df08161207c565b60008060408385031215611f9a578182fd5b50508035926020909101359150565b60008151808452611fc1816020860160208601612013565b601f01601f19169290920160200192915050565b6001600160a01b0384168152606060208201526000611ff76060830185611fa9565b82810360408401526120098185611fa9565b9695505050505050565b60005b8381101561202e578181015183820152602001612016565b838111156105d85750506000910152565b600060001982141561205f57634e487b7160e01b81526011600452602481fd5b5060010190565b634e487b7160e01b600052604160045260246000fd5b6001600160a01b0381168114611aa257600080fdfe608060405234801561001057600080fd5b506120fa806100206000396000f3fe608060405234801561001057600080fd5b506004361061018d5760003560e01c8063715018a6116100e3578063a9059cbb1161008c578063d4b8399211610066578063d4b839921461034e578063dd62ed3e14610361578063f2fde38b1461039a57600080fd5b8063a9059cbb146102ff578063ad76d68614610312578063b86e321c1461033b57600080fd5b806391b89fba116100bd57806391b89fba146102d157806395d89b41146102e4578063a457c2d7146102ec57600080fd5b8063715018a61461029157806379cc6790146102995780638da5cb5b146102ac57600080fd5b806323b872dd1161014557806340c10f191161011f57806340c10f191461024257806359974e381461025557806370a082311461026857600080fd5b806323b872dd1461020d578063313ce56714610220578063395093511461022f57600080fd5b806307f96bf51161017657806307f96bf5146101cd578063095ea7b3146101e257806318160ddd1461020557600080fd5b806305b3ccb41461019257806306fdde03146101b8575b600080fd5b6101a56101a0366004611d1d565b6103ad565b6040519081526020015b60405180910390f35b6101c061041d565b6040516101af9190611ea3565b6101e06101db366004611dfc565b6104af565b005b6101f56101f0366004611db1565b6105a4565b60405190151581526020016101af565b6067546101a5565b6101f561021b366004611d71565b6105ba565b604051601281526020016101af565b6101f561023d366004611db1565b61060a565b6101e0610250366004611db1565b610641565b6101e0610263366004611e6f565b6106a9565b6101a5610276366004611d1d565b6001600160a01b031660009081526065602052604090205490565b6101e0610820565b6101e06102a7366004611db1565b6108d1565b6033546001600160a01b03165b6040516001600160a01b0390911681526020016101af565b6101a56102df366004611d1d565b610935565b6101c0610940565b6101f56102fa366004611db1565b61094f565b6101f561030d366004611db1565b6109f8565b6101a5610320366004611d1d565b6001600160a01b03166000908152609a602052604090205490565b6101e0610349366004611d1d565b610a05565b6097546102b9906001600160a01b031681565b6101a561036f366004611d39565b6001600160a01b03918216600090815260666020908152604080832093909416825291909152205490565b6101e06103a8366004611d1d565b610b03565b6001600160a01b03811660009081526099602090815260408083205460659092528220546098547001000000000000000000000000000000009261040d9261040892610402916103fd9190610c42565b610c4e565b90610ccd565b610d0b565b6104179190611f46565b92915050565b60606068805461042c90612020565b80601f016020809104026020016040519081016040528092919081815260200182805461045890612020565b80156104a55780601f1061047a576101008083540402835291602001916104a5565b820191906000526020600020905b81548152906001019060200180831161048857829003601f168201915b5050505050905090565b600054610100900460ff16806104c8575060005460ff16155b6105305760405162461bcd60e51b815260206004820152602e60248201527f496e697469616c697a61626c653a20636f6e747261637420697320616c72656160448201526d191e481a5b9a5d1a585b1a5e995960921b60648201526084015b60405180910390fd5b600054610100900460ff16158015610552576000805461ffff19166101011790555b61055a610d1a565b6105648383610ddd565b6097805473ffffffffffffffffffffffffffffffffffffffff19166001600160a01b038616179055801561059e576000805461ff00191690555b50505050565b60006105b1338484610ea4565b50600192915050565b60006105c7848484610ffd565b6105ff84336105fa8560405180606001604052806028815260200161209d602891396105f38a3361036f565b9190611099565b610ea4565b5060015b9392505050565b3360008181526066602090815260408083206001600160a01b038716845290915281205490916105b19185906105fa908690611f2e565b6033546001600160a01b0316331461069b5760405162461bcd60e51b815260206004820181905260248201527f4f776e61626c653a2063616c6c6572206973206e6f7420746865206f776e65726044820152606401610527565b6106a582826110c5565b5050565b6033546001600160a01b031633146107035760405162461bcd60e51b815260206004820181905260248201527f4f776e61626c653a2063616c6c6572206973206e6f7420746865206f776e65726044820152606401610527565b600061070e60675490565b1161075b5760405162461bcd60e51b815260206004820152601460248201527f526577617264446973743a203020737570706c790000000000000000000000006044820152606401610527565b600081116107ab5760405162461bcd60e51b815260206004820152601460248201527f526577617264446973743a203020616d6f756e740000000000000000000000006044820152606401610527565b6107e56107b760675490565b6107d283700100000000000000000000000000000000610c42565b6107dc9190611f46565b60985490611129565b60985560405181815233907fdf29796aad820e4bb192f3a8d631b76519bcd2cbe77cc85af20e9df53cece0869060200160405180910390a250565b6033546001600160a01b0316331461087a5760405162461bcd60e51b815260206004820181905260248201527f4f776e61626c653a2063616c6c6572206973206e6f7420746865206f776e65726044820152606401610527565b6033546040516000916001600160a01b0316907f8be0079c531659141344cd1fd0a4f28419497f9722a3daafe3b4186f6b6457e0908390a36033805473ffffffffffffffffffffffffffffffffffffffff19169055565b6033546001600160a01b0316331461092b5760405162461bcd60e51b815260206004820181905260248201527f4f776e61626c653a2063616c6c6572206973206e6f7420746865206f776e65726044820152606401610527565b6106a58282611135565b600061041782611179565b60606069805461042c90612020565b3360009081526066602090815260408083206001600160a01b0386168452909152812054828110156109e95760405162461bcd60e51b815260206004820152602560248201527f45524332303a2064656372656173656420616c6c6f77616e63652062656c6f7760448201527f207a65726f0000000000000000000000000000000000000000000000000000006064820152608401610527565b6105ff33856105fa8685611fdd565b60006105b1338484610ffd565b6033546001600160a01b03163314610a5f5760405162461bcd60e51b815260206004820181905260248201527f4f776e61626c653a2063616c6c6572206973206e6f7420746865206f776e65726044820152606401610527565b6000610a6a82611179565b905080156106a5576001600160a01b0382166000908152609a6020526040902054610a959082611129565b6001600160a01b0383166000818152609a6020526040908190209290925590517f1d3eee4ca001cff39eec6ec7615aacf2f2bd61791273830728ba00ccbd6e133790610ae49084815260200190565b60405180910390a26097546106a5906001600160a01b031683836111a5565b6033546001600160a01b03163314610b5d5760405162461bcd60e51b815260206004820181905260248201527f4f776e61626c653a2063616c6c6572206973206e6f7420746865206f776e65726044820152606401610527565b6001600160a01b038116610bd95760405162461bcd60e51b815260206004820152602660248201527f4f776e61626c653a206e6577206f776e657220697320746865207a65726f206160448201527f64647265737300000000000000000000000000000000000000000000000000006064820152608401610527565b6033546040516001600160a01b038084169216907f8be0079c531659141344cd1fd0a4f28419497f9722a3daafe3b4186f6b6457e090600090a36033805473ffffffffffffffffffffffffffffffffffffffff19166001600160a01b0392909216919091179055565b60006106038284611f66565b6000600160ff1b8210610cc95760405162461bcd60e51b815260206004820152602860248201527f53616665436173743a2076616c756520646f65736e27742066697420696e206160448201527f6e20696e743235360000000000000000000000000000000000000000000000006064820152608401610527565b5090565b600080610cda8385611ed6565b905060008312158015610ced5750838112155b80610d025750600083128015610d0257508381125b61060357600080fd5b600080821215610cc957600080fd5b600054610100900460ff1680610d33575060005460ff16155b610d965760405162461bcd60e51b815260206004820152602e60248201527f496e697469616c697a61626c653a20636f6e747261637420697320616c72656160448201526d191e481a5b9a5d1a585b1a5e995960921b6064820152608401610527565b600054610100900460ff16158015610db8576000805461ffff19166101011790555b610dc0611225565b610dc86112d6565b8015610dda576000805461ff00191690555b50565b600054610100900460ff1680610df6575060005460ff16155b610e595760405162461bcd60e51b815260206004820152602e60248201527f496e697469616c697a61626c653a20636f6e747261637420697320616c72656160448201526d191e481a5b9a5d1a585b1a5e995960921b6064820152608401610527565b600054610100900460ff16158015610e7b576000805461ffff19166101011790555b610e83611225565b610e8d83836113d8565b8015610e9f576000805461ff00191690555b505050565b6001600160a01b038316610f1f5760405162461bcd60e51b8152602060048201526024808201527f45524332303a20617070726f76652066726f6d20746865207a65726f2061646460448201527f72657373000000000000000000000000000000000000000000000000000000006064820152608401610527565b6001600160a01b038216610f9b5760405162461bcd60e51b815260206004820152602260248201527f45524332303a20617070726f766520746f20746865207a65726f20616464726560448201527f73730000000000000000000000000000000000000000000000000000000000006064820152608401610527565b6001600160a01b0383811660008181526066602090815260408083209487168084529482529182902085905590518481527f8c5be1e5ebec7d5bd14f71427d1e84f3dd0314c0f7b2291e5b200ac8c7c3b92591015b60405180910390a3505050565b6110088383836114b4565b60006110226103fd83609854610c4290919063ffffffff16565b6001600160a01b0385166000908152609960205260409020549091506110489082610ccd565b6001600160a01b03808616600090815260996020526040808220939093559085168152205461107790826116d5565b6001600160a01b03909316600090815260996020526040902092909255505050565b600081848411156110bd5760405162461bcd60e51b81526004016105279190611ea3565b505050900390565b6110cf8282611721565b6111096110ea6103fd83609854610c4290919063ffffffff16565b6001600160a01b038416600090815260996020526040902054906116d5565b6001600160a01b0390921660009081526099602052604090209190915550565b60006106038284611f2e565b61113f8282611800565b61110961115a6103fd83609854610c4290919063ffffffff16565b6001600160a01b03841660009081526099602052604090205490610ccd565b6001600160a01b0381166000908152609a60205260408120546104179061119f846103ad565b90611986565b604080516001600160a01b038416602482015260448082018490528251808303909101815260649091019091526020810180517bffffffffffffffffffffffffffffffffffffffffffffffffffffffff167fa9059cbb00000000000000000000000000000000000000000000000000000000179052610e9f908490611992565b600054610100900460ff168061123e575060005460ff16155b6112a15760405162461bcd60e51b815260206004820152602e60248201527f496e697469616c697a61626c653a20636f6e747261637420697320616c72656160448201526d191e481a5b9a5d1a585b1a5e995960921b6064820152608401610527565b600054610100900460ff16158015610dc8576000805461ffff19166101011790558015610dda576000805461ff001916905550565b600054610100900460ff16806112ef575060005460ff16155b6113525760405162461bcd60e51b815260206004820152602e60248201527f496e697469616c697a61626c653a20636f6e747261637420697320616c72656160448201526d191e481a5b9a5d1a585b1a5e995960921b6064820152608401610527565b600054610100900460ff16158015611374576000805461ffff19166101011790555b6033805473ffffffffffffffffffffffffffffffffffffffff19163390811790915560405181906000907f8be0079c531659141344cd1fd0a4f28419497f9722a3daafe3b4186f6b6457e0908290a3508015610dda576000805461ff001916905550565b600054610100900460ff16806113f1575060005460ff16155b6114545760405162461bcd60e51b815260206004820152602e60248201527f496e697469616c697a61626c653a20636f6e747261637420697320616c72656160448201526d191e481a5b9a5d1a585b1a5e995960921b6064820152608401610527565b600054610100900460ff16158015611476576000805461ffff19166101011790555b8251611489906068906020860190611c06565b50815161149d906069906020850190611c06565b508015610e9f576000805461ff0019169055505050565b6001600160a01b0383166115305760405162461bcd60e51b815260206004820152602560248201527f45524332303a207472616e736665722066726f6d20746865207a65726f20616460448201527f64726573730000000000000000000000000000000000000000000000000000006064820152608401610527565b6001600160a01b0382166115ac5760405162461bcd60e51b815260206004820152602360248201527f45524332303a207472616e7366657220746f20746865207a65726f206164647260448201527f65737300000000000000000000000000000000000000000000000000000000006064820152608401610527565b6001600160a01b0383166000908152606560205260409020548181101561163b5760405162461bcd60e51b815260206004820152602660248201527f45524332303a207472616e7366657220616d6f756e742065786365656473206260448201527f616c616e636500000000000000000000000000000000000000000000000000006064820152608401610527565b6116458282611fdd565b6001600160a01b03808616600090815260656020526040808220939093559085168152908120805484929061167b908490611f2e565b92505081905550826001600160a01b0316846001600160a01b03167fddf252ad1be2c89b69c2b068fc378daa952ba7f163c4a11628f55a4df523b3ef846040516116c791815260200190565b60405180910390a350505050565b60008082121580156116f05750826116ed8382611f85565b13155b8061170e575060008212801561170e57508261170c8382611f85565b135b61171757600080fd5b6106038284611f85565b6001600160a01b0382166117775760405162461bcd60e51b815260206004820152601f60248201527f45524332303a206d696e7420746f20746865207a65726f2061646472657373006044820152606401610527565b80606760008282546117899190611f2e565b90915550506001600160a01b038216600090815260656020526040812080548392906117b6908490611f2e565b90915550506040518181526001600160a01b038316906000907fddf252ad1be2c89b69c2b068fc378daa952ba7f163c4a11628f55a4df523b3ef9060200160405180910390a35050565b6001600160a01b03821661187c5760405162461bcd60e51b815260206004820152602160248201527f45524332303a206275726e2066726f6d20746865207a65726f2061646472657360448201527f73000000000000000000000000000000000000000000000000000000000000006064820152608401610527565b6001600160a01b0382166000908152606560205260409020548181101561190b5760405162461bcd60e51b815260206004820152602260248201527f45524332303a206275726e20616d6f756e7420657863656564732062616c616e60448201527f63650000000000000000000000000000000000000000000000000000000000006064820152608401610527565b6119158282611fdd565b6001600160a01b03841660009081526065602052604081209190915560678054849290611943908490611fdd565b90915550506040518281526000906001600160a01b038516907fddf252ad1be2c89b69c2b068fc378daa952ba7f163c4a11628f55a4df523b3ef90602001610ff0565b60006106038284611fdd565b60006119e7826040518060400160405280602081526020017f5361666545524332303a206c6f772d6c6576656c2063616c6c206661696c6564815250856001600160a01b0316611a779092919063ffffffff16565b805190915015610e9f5780806020019051810190611a059190611ddc565b610e9f5760405162461bcd60e51b815260206004820152602a60248201527f5361666545524332303a204552433230206f7065726174696f6e20646964206e60448201527f6f742073756363656564000000000000000000000000000000000000000000006064820152608401610527565b6060611a868484600085611a8e565b949350505050565b606082471015611b065760405162461bcd60e51b815260206004820152602660248201527f416464726573733a20696e73756666696369656e742062616c616e636520666f60448201527f722063616c6c00000000000000000000000000000000000000000000000000006064820152608401610527565b843b611b545760405162461bcd60e51b815260206004820152601d60248201527f416464726573733a2063616c6c20746f206e6f6e2d636f6e74726163740000006044820152606401610527565b600080866001600160a01b03168587604051611b709190611e87565b60006040518083038185875af1925050503d8060008114611bad576040519150601f19603f3d011682016040523d82523d6000602084013e611bb2565b606091505b5091509150611bc2828286611bcd565b979650505050505050565b60608315611bdc575081610603565b825115611bec5782518084602001fd5b8160405162461bcd60e51b81526004016105279190611ea3565b828054611c1290612020565b90600052602060002090601f016020900481019282611c345760008555611c7a565b82601f10611c4d57805160ff1916838001178555611c7a565b82800160010185558215611c7a579182015b82811115611c7a578251825591602001919060010190611c5f565b50610cc99291505b80821115610cc95760008155600101611c82565b600082601f830112611ca6578081fd5b813567ffffffffffffffff80821115611cc157611cc1612071565b604051601f8301601f19908116603f01168101908282118183101715611ce957611ce9612071565b81604052838152866020858801011115611d01578485fd5b8360208701602083013792830160200193909352509392505050565b600060208284031215611d2e578081fd5b813561060381612087565b60008060408385031215611d4b578081fd5b8235611d5681612087565b91506020830135611d6681612087565b809150509250929050565b600080600060608486031215611d85578081fd5b8335611d9081612087565b92506020840135611da081612087565b929592945050506040919091013590565b60008060408385031215611dc3578182fd5b8235611dce81612087565b946020939093013593505050565b600060208284031215611ded578081fd5b81518015158114610603578182fd5b600080600060608486031215611e10578283fd5b8335611e1b81612087565b9250602084013567ffffffffffffffff80821115611e37578384fd5b611e4387838801611c96565b93506040860135915080821115611e58578283fd5b50611e6586828701611c96565b9150509250925092565b600060208284031215611e80578081fd5b5035919050565b60008251611e99818460208701611ff4565b9190910192915050565b6020815260008251806020840152611ec2816040850160208701611ff4565b601f01601f19169190910160400192915050565b6000808212827f7fffffffffffffffffffffffffffffffffffffffffffffffffffffffffffffff03841381151615611f1057611f1061205b565b82600160ff1b038412811615611f2857611f2861205b565b50500190565b60008219821115611f4157611f4161205b565b500190565b600082611f6157634e487b7160e01b81526012600452602481fd5b500490565b6000816000190483118215151615611f8057611f8061205b565b500290565b600080831283600160ff1b01831281151615611fa357611fa361205b565b837f7fffffffffffffffffffffffffffffffffffffffffffffffffffffffffffffff018313811615611fd757611fd761205b565b50500390565b600082821015611fef57611fef61205b565b500390565b60005b8381101561200f578181015183820152602001611ff7565b8381111561059e5750506000910152565b600181811c9082168061203457607f821691505b6020821081141561205557634e487b7160e01b600052602260045260246000fd5b50919050565b634e487b7160e01b600052601160045260246000fd5b634e487b7160e01b600052604160045260246000fd5b6001600160a01b0381168114610dda57600080fdfe45524332303a207472616e7366657220616d6f756e74206578636565647320616c6c6f77616e6365a26469706673582212206881690ed71ed0282178cdbb670176010325acea7159eb43b3c8cab571beec7864736f6c63430008040033a2646970667358221220b92e23251c4e1654074062cee179309414674124ada22883f6c01ed251c143db64736f6c63430008040033",
  "linkReferences": {},
  "deployedLinkReferences": {}
}