{
  "_format": "hh-sol-artifact-1",
  "contractName": "NFTXEligibilityManager",
  "sourceName": "contracts/solidity/NFTXEligiblityManager.sol",
  "abi": [
    {
      "anonymous": false,
      "inputs": [
        {
          "indexed": false,
          "internalType": "address",
          "name": "impl",
          "type": "address"
        },
        {
          "indexed": false,
          "internalType": "address",
          "name": "targetAsset",
          "type": "address"
        },
        {
          "indexed": false,
          "internalType": "string",
          "name": "name",
          "type": "string"
        },
        {
          "indexed": false,
          "internalType": "bool",
          "name": "finalizedOnDeploy",
          "type": "bool"
        }
      ],
      "name": "ModuleAdded",
      "type": "event"
    },
    {
      "anonymous": false,
      "inputs": [
        {
          "indexed": false,
          "internalType": "address",
          "name": "impl",
          "type": "address"
        },
        {
          "indexed": false,
          "internalType": "string",
          "name": "name",
          "type": "string"
        },
        {
          "indexed": false,
          "internalType": "bool",
          "name": "finalizedOnDeploy",
          "type": "bool"
        }
      ],
      "name": "ModuleUpdated",
      "type": "event"
    },
    {
      "anonymous": false,
      "inputs": [
        {
          "indexed": true,
          "internalType": "address",
          "name": "previousOwner",
          "type": "address"
        },
        {
          "indexed": true,
          "internalType": "address",
          "name": "newOwner",
          "type": "address"
        }
      ],
      "name": "OwnershipTransferred",
      "type": "event"
    },
    {
      "inputs": [],
      "name": "__NFTXEligibilityManager_init",
      "outputs": [],
      "stateMutability": "nonpayable",
      "type": "function"
    },
    {
      "inputs": [
        {
          "internalType": "address",
          "name": "implementation",
          "type": "address"
        }
      ],
      "name": "addModule",
      "outputs": [],
      "stateMutability": "nonpayable",
      "type": "function"
    },
    {
      "inputs": [],
      "name": "allModuleNames",
      "outputs": [
        {
          "internalType": "string[]",
          "name": "",
          "type": "string[]"
        }
      ],
      "stateMutability": "view",
      "type": "function"
    },
    {
      "inputs": [],
      "name": "allModules",
      "outputs": [
        {
          "components": [
            {
              "internalType": "address",
              "name": "impl",
              "type": "address"
            },
            {
              "internalType": "address",
              "name": "targetAsset",
              "type": "address"
            }
          ],
          "internalType": "struct NFTXEligibilityManager.EligibilityModule[]",
          "name": "",
          "type": "tuple[]"
        }
      ],
      "stateMutability": "view",
      "type": "function"
    },
    {
      "inputs": [
        {
          "internalType": "uint256",
          "name": "moduleIndex",
          "type": "uint256"
        },
        {
          "internalType": "bytes",
          "name": "configData",
          "type": "bytes"
        }
      ],
      "name": "deployEligibility",
      "outputs": [
        {
          "internalType": "address",
          "name": "",
          "type": "address"
        }
      ],
      "stateMutability": "nonpayable",
      "type": "function"
    },
    {
      "inputs": [
        {
          "internalType": "uint256",
          "name": "",
          "type": "uint256"
        }
      ],
      "name": "modules",
      "outputs": [
        {
          "internalType": "address",
          "name": "impl",
          "type": "address"
        },
        {
          "internalType": "address",
          "name": "targetAsset",
          "type": "address"
        }
      ],
      "stateMutability": "view",
      "type": "function"
    },
    {
      "inputs": [],
      "name": "nftxVaultFactory",
      "outputs": [
        {
          "internalType": "contract INFTXVaultFactory",
          "name": "",
          "type": "address"
        }
      ],
      "stateMutability": "view",
      "type": "function"
    },
    {
      "inputs": [],
      "name": "owner",
      "outputs": [
        {
          "internalType": "address",
          "name": "",
          "type": "address"
        }
      ],
      "stateMutability": "view",
      "type": "function"
    },
    {
      "inputs": [],
      "name": "renounceOwnership",
      "outputs": [],
      "stateMutability": "nonpayable",
      "type": "function"
    },
    {
      "inputs": [
        {
          "internalType": "address",
          "name": "newOwner",
          "type": "address"
        }
      ],
      "name": "transferOwnership",
      "outputs": [],
      "stateMutability": "nonpayable",
      "type": "function"
    },
    {
      "inputs": [
        {
          "internalType": "uint256",
          "name": "moduleIndex",
          "type": "uint256"
        },
        {
          "internalType": "address",
          "name": "implementation",
          "type": "address"
        }
      ],
      "name": "updateModule",
      "outputs": [],
      "stateMutability": "nonpayable",
      "type": "function"
    }
  ],
  "bytecode": "0x608060405234801561001057600080fd5b506113ab806100206000396000f3fe608060405234801561001057600080fd5b50600436106100c95760003560e01c8063715018a6116100815780638da5cb5b1161005b5780638da5cb5b146101a2578063f2fde38b146101b3578063f72597cf146101c657600080fd5b8063715018a614610152578063786049ec1461015a57806381b2248a1461016f57600080fd5b806323b6c2eb116100b257806323b6c2eb146101015780633801daf114610114578063576ff9081461013f57600080fd5b8063164f49ae146100ce5780631ed86f19146100ec575b600080fd5b6100d66101ce565b6040516100e39190611268565b60405180910390f35b6100ff6100fa366004610fa2565b610246565b005b6100ff61010f3660046110c2565b6104f1565b606554610127906001600160a01b031681565b6040516001600160a01b0390911681526020016100e3565b61012761014d3660046110f1565b6106f0565b6100ff610801565b6101626108a5565b6040516100e39190611207565b61018261017d3660046110aa565b610a6d565b604080516001600160a01b039384168152929091166020830152016100e3565b6033546001600160a01b0316610127565b6100ff6101c1366004610fa2565b610aa6565b6100ff610bd8565b60606066805480602002602001604051908101604052809291908181526020016000905b8282101561023d576000848152602090819020604080518082019091526002850290910180546001600160a01b039081168352600191820154168284015290835290920191016101f2565b50505050905090565b6033546001600160a01b031633146102a55760405162461bcd60e51b815260206004820181905260248201527f4f776e61626c653a2063616c6c6572206973206e6f7420746865206f776e657260448201526064015b60405180910390fd5b600081905060006040518060400160405280846001600160a01b03168152602001836001600160a01b0316633d4403ac6040518163ffffffff1660e01b815260040160206040518083038186803b1580156102ff57600080fd5b505afa158015610313573d6000803e3d6000fd5b505050506040513d601f19601f820116820180604052508101906103379190610fc5565b6001600160a01b03908116909152606680546001810182556000918252835160029091027f46501879b8ca8525e8c2fd519e2fbfcfa2ebea26501294aa02cbfcfb12e94354810180549285166001600160a01b031993841617905560208501517f46501879b8ca8525e8c2fd519e2fbfcfa2ebea26501294aa02cbfcfb12e943559091018054828616931692909217909155604080516306fdde0360e01b815290519495507f526a1ef569cd9da0f740679693eef4f6062880ef98c0fcf77a896418a42ac75d9488949293928816926306fdde039260048082019391829003018186803b15801561042757600080fd5b505afa15801561043b573d6000803e3d6000fd5b505050506040513d6000823e601f3d908101601f191682016040526104639190810190611001565b856001600160a01b031663b3f05b976040518163ffffffff1660e01b815260040160206040518083038186803b15801561049c57600080fd5b505afa1580156104b0573d6000803e3d6000fd5b505050506040513d601f19601f820116820180604052508101906104d49190610fe1565b6040516104e49493929190611194565b60405180910390a1505050565b6033546001600160a01b0316331461054b5760405162461bcd60e51b815260206004820181905260248201527f4f776e61626c653a2063616c6c6572206973206e6f7420746865206f776e6572604482015260640161029c565b606654821061058c5760405162461bcd60e51b815260206004820152600d60248201526c4f7574206f6620626f756e647360981b604482015260640161029c565b80606683815481106105ae57634e487b7160e01b600052603260045260246000fd5b6000918252602082206002919091020180546001600160a01b0319166001600160a01b03938416179055604080516306fdde0360e01b8152905184937f3aaa99f765c2d9bcbd284c1b88997701cb6bce9eede1b193b43fc34261ddf4e1938593918416926306fdde03926004808201939291829003018186803b15801561063457600080fd5b505afa158015610648573d6000803e3d6000fd5b505050506040513d6000823e601f3d908101601f191682016040526106709190810190611001565b836001600160a01b031663b3f05b976040518163ffffffff1660e01b815260040160206040518083038186803b1580156106a957600080fd5b505afa1580156106bd573d6000803e3d6000fd5b505050506040513d601f19601f820116820180604052508101906106e19190610fe1565b6040516104e4939291906111d3565b60665460009084106107345760405162461bcd60e51b815260206004820152600d60248201526c4f7574206f6620626f756e647360981b604482015260640161029c565b60006066858154811061075757634e487b7160e01b600052603260045260246000fd5b600091825260208220600290910201546001600160a01b0316915061077b82610c93565b6040517f4998b7f30000000000000000000000000000000000000000000000000000000081529091506001600160a01b03821690634998b7f3906107c590889088906004016112c4565b600060405180830381600087803b1580156107df57600080fd5b505af11580156107f3573d6000803e3d6000fd5b509298975050505050505050565b6033546001600160a01b0316331461085b5760405162461bcd60e51b815260206004820181905260248201527f4f776e61626c653a2063616c6c6572206973206e6f7420746865206f776e6572604482015260640161029c565b6033546040516000916001600160a01b0316907f8be0079c531659141344cd1fd0a4f28419497f9722a3daafe3b4186f6b6457e0908390a3603380546001600160a01b0319169055565b606060006066805480602002602001604051908101604052809291908181526020016000905b82821015610916576000848152602090819020604080518082019091526002850290910180546001600160a01b039081168352600191820154168284015290835290920191016108cb565b5050505090506000815167ffffffffffffffff81111561094657634e487b7160e01b600052604160045260246000fd5b60405190808252806020026020018201604052801561097957816020015b60608152602001906001900390816109645790505b50905060005b8251811015610a66578281815181106109a857634e487b7160e01b600052603260045260246000fd5b6020026020010151600001516001600160a01b03166306fdde036040518163ffffffff1660e01b815260040160006040518083038186803b1580156109ec57600080fd5b505afa158015610a00573d6000803e3d6000fd5b505050506040513d6000823e601f3d908101601f19168201604052610a289190810190611001565b828281518110610a4857634e487b7160e01b600052603260045260246000fd5b60200260200101819052508080610a5e90611323565b91505061097f565b5092915050565b60668181548110610a7d57600080fd5b6000918252602090912060029091020180546001909101546001600160a01b0391821692501682565b6033546001600160a01b03163314610b005760405162461bcd60e51b815260206004820181905260248201527f4f776e61626c653a2063616c6c6572206973206e6f7420746865206f776e6572604482015260640161029c565b6001600160a01b038116610b7c5760405162461bcd60e51b815260206004820152602660248201527f4f776e61626c653a206e6577206f776e657220697320746865207a65726f206160448201527f6464726573730000000000000000000000000000000000000000000000000000606482015260840161029c565b6033546040516001600160a01b038084169216907f8be0079c531659141344cd1fd0a4f28419497f9722a3daafe3b4186f6b6457e090600090a3603380546001600160a01b0319166001600160a01b0392909216919091179055565b600054610100900460ff1680610bf1575060005460ff16155b610c545760405162461bcd60e51b815260206004820152602e60248201527f496e697469616c697a61626c653a20636f6e747261637420697320616c72656160448201526d191e481a5b9a5d1a585b1a5e995960921b606482015260840161029c565b600054610100900460ff16158015610c76576000805461ffff19166101011790555b610c7e610d4e565b8015610c90576000805461ff00191690555b50565b60006040517f3d602d80600a3d3981f3363d3d373d3d3d363d7300000000000000000000000081528260601b60148201527f5af43d82803e903d91602b57fd5bf3000000000000000000000000000000000060288201526037816000f09150506001600160a01b038116610d495760405162461bcd60e51b815260206004820152601660248201527f455243313136373a20637265617465206661696c656400000000000000000000604482015260640161029c565b919050565b600054610100900460ff1680610d67575060005460ff16155b610dca5760405162461bcd60e51b815260206004820152602e60248201527f496e697469616c697a61626c653a20636f6e747261637420697320616c72656160448201526d191e481a5b9a5d1a585b1a5e995960921b606482015260840161029c565b600054610100900460ff16158015610dec576000805461ffff19166101011790555b610df4610dfc565b610c7e610ead565b600054610100900460ff1680610e15575060005460ff16155b610e785760405162461bcd60e51b815260206004820152602e60248201527f496e697469616c697a61626c653a20636f6e747261637420697320616c72656160448201526d191e481a5b9a5d1a585b1a5e995960921b606482015260840161029c565b600054610100900460ff16158015610c7e576000805461ffff19166101011790558015610c90576000805461ff001916905550565b600054610100900460ff1680610ec6575060005460ff16155b610f295760405162461bcd60e51b815260206004820152602e60248201527f496e697469616c697a61626c653a20636f6e747261637420697320616c72656160448201526d191e481a5b9a5d1a585b1a5e995960921b606482015260840161029c565b600054610100900460ff16158015610f4b576000805461ffff19166101011790555b603380546001600160a01b0319163390811790915560405181906000907f8be0079c531659141344cd1fd0a4f28419497f9722a3daafe3b4186f6b6457e0908290a3508015610c90576000805461ff001916905550565b600060208284031215610fb3578081fd5b8135610fbe81611360565b9392505050565b600060208284031215610fd6578081fd5b8151610fbe81611360565b600060208284031215610ff2578081fd5b81518015158114610fbe578182fd5b600060208284031215611012578081fd5b815167ffffffffffffffff80821115611029578283fd5b818401915084601f83011261103c578283fd5b81518181111561104e5761104e61134a565b604051601f8201601f19908116603f011681019083821181831017156110765761107661134a565b8160405282815287602084870101111561108e578586fd5b61109f8360208301602088016112f3565b979650505050505050565b6000602082840312156110bb578081fd5b5035919050565b600080604083850312156110d4578081fd5b8235915060208301356110e681611360565b809150509250929050565b600080600060408486031215611105578081fd5b83359250602084013567ffffffffffffffff80821115611123578283fd5b818601915086601f830112611136578283fd5b813581811115611144578384fd5b876020828501011115611155578384fd5b6020830194508093505050509250925092565b600081518084526111808160208601602086016112f3565b601f01601f19169290920160200192915050565b60006001600160a01b038087168352808616602084015250608060408301526111c06080830185611168565b9050821515606083015295945050505050565b6001600160a01b03841681526060602082015260006111f56060830185611168565b90508215156040830152949350505050565b6000602080830181845280855180835260408601915060408160051b8701019250838701855b8281101561125b57603f19888603018452611249858351611168565b9450928501929085019060010161122d565b5092979650505050505050565b602080825282518282018190526000919060409081850190868401855b828110156112b757815180516001600160a01b0390811686529087015116868501529284019290850190600101611285565b5091979650505050505050565b60208152816020820152818360408301376000818301604090810191909152601f909201601f19160101919050565b60005b8381101561130e5781810151838201526020016112f6565b8381111561131d576000848401525b50505050565b600060001982141561134357634e487b7160e01b81526011600452602481fd5b5060010190565b634e487b7160e01b600052604160045260246000fd5b6001600160a01b0381168114610c9057600080fdfea264697066735822122047c7dc3e7eb82fc054b1ae6d2b5176fc81accb7c053f7a94f7584b4b80c33dbf64736f6c63430008040033",
  "linkReferences": {},
  "deployedLinkReferences": {}
}